:100000000C945D000C9485000C9485000C94850084
:100010000C9485000C9485000C9485000C9485004C
:100020000C9485000C9485000C9485000C9485003C
:100030000C9485000C9485000C9485000C9485002C
:100040000C94B8020C9485000C9485000C948500E7
:100050000C9485000C9485000C9485000C9485000C
:100060000C9485000C94850000000008000201003B
:100070000003040700000000000000000000000072
:10008000250028002B0000000000240027002A0083
:10009000040404040404040402020202020203032E
:1000A0000303030301020408102040800102040836
:1000B0001020010204081020200411241FBECFEFDD
:1000C000D8E0DEBFCDBF11E0A0E0B1E0E4E6FCE0A7
:1000D00002C005900D92A032B107D9F721E0A0E24D
:1000E000B1E001C01D92A134B207E1F710E0CDE507
:1000F000D0E004C02197FE010E942A06CC35D1072A
:10010000C9F70E9402030C9430060C94000090E0A2
:10011000FC01EC55FF4F249180579F4FFC018491C7
:10012000882399F090E0880F991FFC01EA57FF4F50
:10013000A591B491FC01E458FF4F859194918FB73C
:10014000F894EC91E22BEC938FBF0895AF92BF929D
:10015000CF92DF92EF92FF920F931F93CF93DF9393
:100160006C017B018B01040F151FEB015E01AE18C2
:10017000BF08C017D10759F06991D601ED91FC91E4
:100180000190F081E02DC6010995892B79F7C50111
:10019000DF91CF911F910F91FF90EF90DF90CF9063
:1001A000BF90AF90089590E0FC01E859FF4F249173
:1001B000FC01EC55FF4F3491FC01E057FF4FE491F7
:1001C000EE23C9F0222339F0233001F1A8F42130C5
:1001D00019F1223029F1F0E0EE0FFF1FE458FF4F34
:1001E000A591B4918FB7F894EC91611126C0309528
:1001F0003E233C938FBF08952730A9F02830C9F0E3
:10020000243049F7809180008F7D03C08091800069
:100210008F7780938000DFCF84B58F7784BDDBCF6D
:1002200084B58F7DFBCF8091B0008F778093B00035
:10023000D2CF8091B0008F7DF9CF3E2BDACF0895D9
:1002400090E080E00895FC0101900020E9F73197EB
:10025000AF01481B590BBC0189E291E00C94A60048
:100260008F929F92AF92BF920F931F93CF93DF9382
:10027000CDB7DEB7A1970FB6F894DEBF0FBECDBFE6
:1002800019A2423008F44AE08E010F5D1F4F842E00
:10029000912CB12CA12CA50194010E940806E62FF7
:1002A000B901CA01EA30F4F4E05DD801EE938D01A2
:1002B000232B242B252B79F790E080E0109719F061
:1002C000CD010E942301A1960FB6F894DEBF0FBEA8
:1002D000CDBFDF91CF911F910F91BF90AF909F90B5
:1002E0008F900895E95CE1CFCF93DF93EC0160E05C
:1002F0008E810E94D30061E08E810E94D30060E075
:100300008E810E94D3008BE891E00197F1F7DF9195
:10031000CF910895CF92DF92EF92FF920F931F93A8
:10032000CF93DF936C017C0187E0E80EF11CD0E0F5
:10033000C0E0062F10E0B8010C2E02C0759567953D
:100340000A94E2F76170F70181917F010E94D30066
:100350002196C430D10579F7C601DF91CF911F9165
:100360000F91FF90EF90DF90CF900C947401CF929B
:10037000DF92EF92FF920F931F93CF93DF93EC01E5
:10038000F62E642F8C810E94D3008D818F3F19F04F
:1003900060E00E94D3000F2D10E08F8584FF25C000
:1003A0006E0187E0C80ED11CF12CE12CB8010E2C97
:1003B00002C0759567950A94E2F76170F601819124
:1003C0006F010E94D300FFEFEF1AFF0A88E0E816E2
:1003D000F10461F7CE01DF91CF911F910F91FF9052
:1003E000EF90DF90CF900C947401B80184E0759584
:1003F00067958A95E1F7CE010E948A016F2DCE01A3
:10040000DF91CF911F910F91FF90EF90DF90CF90F0
:100410000C948A0140E0682F89E291E00C94B701C6
:10042000CF93DF93823029F49091380198609093B4
:10043000380180933C0110923D0180E480933E019D
:1004400080E180933F0180E58093400180912D0100
:100450000E94870080912E018F3F11F00E9487003B
:1004600080912F010E948700C9E2D1E09E012952AC
:1004700031408091380184FD0AC084E090E02196EB
:10048000281739073CF48E810E948700EFCF88E05F
:1004900090E0F5CF8BE39DE00197F1F760E080916C
:1004A0002D010E94D30060E080912F010E94D300B3
:1004B00080912E018F3F19F060E00E94D30080915F
:1004C000380184FD39C063E089E291E00E948A012D
:1004D000CBE4D6E4CE010197F1F763E089E291E045
:1004E0000E948A012197F1F763E089E291E00E947E
:1004F0008A0183E592E00197F1F762E089E291E0F9
:100500000E948A018091380180620E940A0284E080
:10051000809339018CE00E940A0281E00E940A0265
:100520008BE39FE10197F1F782E080933A0186E047
:10053000DF91CF910C940A0280620E940A028BE440
:1005400096E40197F1F78091380180620E940A02D7
:1005500083E592E00197F1F78091380180620E9473
:100560000A02D0CF41E00E94B70181E090E00895F7
:100570001F920F920FB60F9211242F933F938F93D8
:100580009F93AF93BF938091250190912601A091F5
:100590002701B09128013091240123E0230F2D374A
:1005A00058F50196A11DB11D2093240180932501CA
:1005B00090932601A0932701B093280180912001F8
:1005C00090912101A0912201B09123010196A11DDA
:1005D000B11D8093200190932101A0932201B0933B
:1005E0002301BF91AF919F918F913F912F910F90D8
:1005F0000FBE0F901F90189526E8230F0296A11D9D
:10060000B11DD2CF789484B5826084BD84B58160F9
:1006100084BD85B5826085BD85B5816085BD8091CD
:100620006E00816080936E00109281008091810045
:10063000826080938100809181008160809381003D
:10064000809180008160809380008091B1008460FF
:100650008093B1008091B00081608093B000809160
:100660007A00846080937A0080917A00826080931F
:100670007A0080917A00816080937A0080917A007C
:10068000806880937A001092C10082E00E9410027C
:1006900010E4C0E0D0E010937C0080917A00806488
:1006A00080937A0080917A0086FDFCCF809178005B
:1006B00060917900762F682F072E000C880B990B1C
:1006C0000E94E10428E638EE4FE95BE30E949605BC
:1006D0006B017C01E1E080913C018111E0E0E1955A
:1006E000F0E0E75DFE4F848980680E940A028CE09A
:1006F00091E00E942301A7019601C701B6010E9463
:100700000306882349F084E191E00E9423012097A9
:1007100011F20E940000BFCF46015701E894B7F8DC
:100720002FEF3FEF4FE75FE7C501B4010E940306DB
:1007300081110DC02FEF3FEF4FE75FE7C501B40117
:100740000E94AB0418161CF488E191E0DECF2FEF75
:100750003FEF4FE75FE4C701B6010E94910518160D
:100760001CF48CE191E0D1CF2FEF3FEF4FE75FEC2E
:10077000C701B6010E94AB0487FDF3CF20E030E053
:10078000A901C701B6010E94AB0487FF0AC041E07E
:100790006DE289E291E00E94B701F7FAF094F7F870
:1007A000F0942AE037ED43EA5BE3C701B6010E940B
:1007B0003F044B015C010E94B0046B017C010E946C
:1007C000DF049B01AC01C501B4010E943E044B0152
:1007D0005C014AE0C701B6010E94300141E06EE2CF
:1007E00089E291E00E94B70120E030E040E251E46C
:1007F000C501B4010E9496054B015C010E94B00442
:100800006B01F12CE12C4AE0C701B6010E943001D6
:10081000C701B6010E94DF049B01AC01C501B40110
:100820000E943E0420E030E040E251E40E94960540
:100830000E94B00490E080E04AE00E94300167CF5F
:10084000E9E2F1E01382128284E091E091838083F7
:1008500084E084838FEF858385E0868386E08783C9
:1008600087E0808788E0818789E082871386148605
:1008700015861686178681E00C9410025058BB2707
:10088000AA270E9456040C9457050E94490538F087
:100890000E94500520F039F49F3F19F426F40C947F
:1008A00046050EF4E095E7FB0C944005E92F0E9405
:1008B000680558F3BA17620773078407950720F095
:1008C00079F4A6F50C948A050EF4E0950B2EBA2F58
:1008D000A02D0B01B90190010C01CA01A001112446
:1008E000FF27591B99F0593F50F4503E68F11A16F2
:1008F000F040A22F232F342F4427585FF3CF469583
:1009000037952795A795F0405395C9F77EF41F16A4
:10091000BA0B620B730B840BBAF09150A1F0FF0F6E
:10092000BB1F661F771F881FC2F70EC0BA0F621F5A
:10093000731F841F48F4879577956795B795F7954A
:100940009E3F08F0B0CF9395880F08F09927EE0FDF
:100950009795879508950E941C0508F481E00895F5
:100960000E94700588F09F5798F0B92F9927B751CA
:10097000B0F0E1F0660F771F881F991F1AF0BA9543
:10098000C9F714C0B13091F00E948A05B1E0089512
:100990000C948A05672F782F8827B85F39F0B93F04
:1009A000CCF3869577956795B395D9F73EF49095F6
:1009B0008095709561957F4F8F4F9F4F0895E89474
:1009C00009C097FB3EF490958095709561957F4F97
:1009D0008F4F9F4F9923A9F0F92F96E9BB27939545
:1009E000F695879577956795B795F111F8CFFAF455
:1009F000BB0F11F460FF1BC06F5F7F4F8F4F9F4F86
:100A000016C0882311F096E911C0772321F09EE8E3
:100A1000872F762F05C0662371F096E8862F70E049
:100A200060E02AF09A95660F771F881FDAF7880F23
:100A30009695879597F90895990F0008550FAA0B79
:100A4000E0E8FEEF16161706E807F907C0F01216E1
:100A50001306E407F50798F0621B730B840B950BE4
:100A600039F40A2661F0232B242B252B21F4089539
:100A70000A2609F4A140A6958FEF811D811D0895D6
:100A800097F99F6780E870E060E008959FEF80EC41
:100A9000089500240A9416161706180609060895E4
:100AA00000240A9412161306140605060895092E4A
:100AB0000394000C11F4882352F0BB0F40F4BF2BB9
:100AC00011F460FF04C06F5F7F4F8F4F9F4F0895F9
:100AD00057FD9058440F551F59F05F3F71F04795EF
:100AE000880F97FB991F61F09F3F79F087950895D4
:100AF000121613061406551FF2CF4695F1DF08C0F3
:100B0000161617061806991FF1CF8695710561050F
:100B100008940895E894BB2766277727CB0197F9B7
:100B200008950E941C0508F48FEF08950E94A905FE
:100B30000C9457050E94490538F00E94500520F09A
:100B4000952311F00C9440050C94460511240C9447
:100B50008B050E94680570F3959FC1F3950F50E0D7
:100B6000551F629FF001729FBB27F00DB11D639F5F
:100B7000AA27F00DB11DAA1F649F6627B00DA11D05
:100B8000661F829F2227B00DA11D621F739FB00DAB
:100B9000A11D621F839FA00D611D221F749F33271B
:100BA000A00D611D231F849F600D211D822F762FB4
:100BB0006A2F11249F5750409AF0F1F088234AF091
:100BC000EE0FFF1FBB1F661F771F881F91505040FD
:100BD000A9F79E3F510580F00C9440050C948B05BD
:100BE0005F3FE4F3983ED4F3869577956795B79584
:100BF000F795E7959F5FC1F7FE2B880F911D96959E
:100C0000879597F908950E941C05880B990B089504
:100C1000A1E21A2EAA1BBB1BFD010DC0AA1FBB1F00
:100C2000EE1FFF1FA217B307E407F50720F0A21B72
:100C3000B30BE40BF50B661F771F881F991F1A94DF
:100C400069F760957095809590959B01AC01BD0109
:100C5000CF010895EE0FFF1F0590F491E02D099448
:040C6000F894FFCF36
:100C640000000000B202A60020011F01566F6C7440
:100C7400616765006E616E00696E66006F7666007E
:107E0000112484B714BE81FFF0D085E080938100F7
:107E100082E08093C00088E18093C10086E0809377
:107E2000C20080E18093C4008EE0C9D0259A86E02C
:107E300020E33CEF91E0309385002093840096BBD3
:107E4000B09BFECF1D9AA8958150A9F7CC24DD24C4
:107E500088248394B5E0AB2EA1E19A2EF3E0BF2EE7
:107E6000A2D0813461F49FD0082FAFD0023811F036
:107E7000013811F484E001C083E08DD089C08234E0
:107E800011F484E103C0853419F485E0A6D080C0E4
:107E9000853579F488D0E82EFF2485D0082F10E0AE
:107EA000102F00270E291F29000F111F8ED06801E7
:107EB0006FC0863521F484E090D080E0DECF843638
:107EC00009F040C070D06FD0082F6DD080E0C81688
:107ED00080E7D80618F4F601B7BEE895C0E0D1E017
:107EE00062D089930C17E1F7F0E0CF16F0E7DF06D8
:107EF00018F0F601B7BEE89568D007B600FCFDCFD4
:107F0000A601A0E0B1E02C9130E011968C91119780
:107F100090E0982F8827822B932B1296FA010C0160
:107F200087BEE89511244E5F5F4FF1E0A038BF0790
:107F300051F7F601A7BEE89507B600FCFDCF97BE46
:107F4000E89526C08437B1F42ED02DD0F82E2BD052
:107F50003CD0F601EF2C8F010F5F1F4F84911BD097
:107F6000EA94F801C1F70894C11CD11CFA94CF0C13
:107F7000D11C0EC0853739F428D08EE10CD085E9AC
:107F80000AD08FE07ACF813511F488E018D01DD067
:107F900080E101D065CF982F8091C00085FFFCCF94
:107FA0009093C60008958091C00087FFFCCF809118
:107FB000C00084FD01C0A8958091C6000895E0E648
:107FC000F0E098E1908380830895EDDF803219F02E
:107FD00088E0F5DFFFCF84E1DECF1F93182FE3DFCA
:107FE0001150E9F7F2DF1F91089580E0E8DFEE27F6
:047FF000FF270994CA
:027FFE00040479
:0400000300007E007B
:00000001FF
