:100000000C945C000C9479000C9479000C947900A9
:100010000C9479000C9479000C9479000C9479007C
:100020000C9479000C9479000C9479000C9479006C
:100030000C9479000C9479000C9479000C9479005C
:100040000C9414010C9479000C9479000C947900B0
:100050000C9479000C9479000C9479000C9479003C
:100060000C9479000C947900000000080002010053
:100070000003040700000000000000000000000072
:10008000250028002B0000000000240027002A0083
:10009000040404040404040402020202020203032E
:1000A0000303030301020408102040800102040836
:1000B000102001020408102011241FBECFEFD8E049
:1000C000DEBFCDBF11E0A0E0B1E0EEE7F3E002C09B
:1000D00005900D92AA30B107D9F721E0AAE0B1E06E
:1000E00001C01D92A331B207E1F70E945E010C949A
:1000F000BD010C94000090E0FC01EC55FF4F2491F1
:1001000080579F4FFC018491882399F090E0880FDD
:10011000991FFC01EA57FF4FA591B491FC01E458E7
:10012000FF4F859194918FB7F894EC91E22BEC936B
:100130008FBF089590E0FC01E859FF4F2491FC0126
:10014000EC55FF4F3491FC01E057FF4FE491EE2353
:10015000C9F0222339F0233001F1A8F4213019F13C
:10016000223029F1F0E0EE0FFF1FE458FF4FA59178
:10017000B4918FB7F894EC91611126C030953E236D
:100180003C938FBF08952730A9F02830C9F0243060
:1001900049F7809180008F7D03C0809180008F7728
:1001A00080938000DFCF84B58F7784BDDBCF84B5AB
:1001B0008F7DFBCF8091B0008F778093B000D2CF3E
:1001C0008091B0008F7DF9CF3E2BDACFCF93DF93B4
:1001D000D82FC8E06D2F661F6627661F88E00E9433
:1001E0009A00DD0F61E087E00E949A0060E087E0FE
:1001F0000E949A00C15071F7DF91CF910895CF937B
:10020000C82F60E084E00E949A0082E90E94E60024
:10021000EC2FF0E0E050FF4F80810E94E60060E0AC
:1002200084E0CF910C949A001F920F920FB60F9218
:1002300011242F933F938F939F93AF93BF938091FC
:100240000F0190911001A0911101B0911201309114
:100250000E0123E0230F2D3758F50196A11DB11D86
:1002600020930E0180930F0190931001A093110130
:10027000B093120180910A0190910B01A0910C01A1
:10028000B0910D010196A11DB11D80930A019093BB
:100290000B01A0930C01B0930D01BF91AF919F9101
:1002A0008F913F912F910F900FBE0F901F90189537
:1002B00026E8230F0296A11DB11DD2CF789484B5F4
:1002C000826084BD84B5816084BD85B5826085BD52
:1002D00085B5816085BD80916E00816080936E00E0
:1002E00010928100809181008260809381008091D2
:1002F0008100816080938100809180008160809383
:1003000080008091B10084608093B1008091B00042
:1003100081608093B00080917A00846080937A003D
:1003200080917A00826080937A0080917A00816067
:1003300080937A0080917A00806880937A0010928E
:10034000C10084E00E947B0087E00E947B0088E07F
:100350000E947B00C0E0D0E080E00E94FF0081E0CE
:100360000E94FF0082E00E94FF0083E00E94FF00E5
:0E037000209791F30E940000EFCFF894FFCF8A
:0A037E00C0F9A4B0999282F88098AB
:00000001FF
