:020000040000FA
:100000000C945E000C9486000C9486000C94860080
:100010000C9486000C9486000C9486000C94570473
:100020000C9486000C9486000C9486000C94860038
:100030000C9486000C9486000C9486000C94860028
:100040000C940B050C9486000C94D9040C94B30406
:100050000C9486000C9486000C9486000C94860008
:100060000C9486000C9486000000000024002700F9
:100070002A0000000008000201000003040700003D
:10008000000000000000010204081020408001026E
:1000900004081020010204081020000000002500C0
:1000A00028002B00040404040404040402020202D5
:1000B00002020303030303030200550511241FBEBC
:1000C000CFEFD8E0DEBFCDBF11E0A0E0B1E0E8EDBA
:1000D000F6E102C005900D92AA3AB107D9F722E0E5
:1000E000AAEAB1E001C01D92AF37B207E1F710E014
:1000F000CEE5D0E004C02197FE010E94640BCD350F
:10010000D107C9F70E949F050C946A0B0C9400005C
:10011000AF92BF92CF92DF92EF92FF920F931F9315
:10012000CF93DF936C017B018B01040F151FEB0153
:100130005E01AE18BF08C017D10759F06991D6010A
:10014000ED91FC910190F081E02DC6010995892B7C
:1001500079F7C501DF91CF911F910F91FF90EF903B
:10016000DF90CF90BF90AF900895FC01538D448DE8
:10017000252F30E0842F90E0821B930B541710F052
:10018000CF96089501970895FC01918D828D98175F
:1001900061F0A28DAE0FBF2FB11D5D968C91928D37
:1001A0009F5F9F73928F90E008958FEF9FEF089568
:1001B000FC01918D828D981731F0828DE80FF11D31
:1001C000858D90E008958FEF9FEF0895FC01918D4C
:1001D000228D892F90E0805C9F4F821B91098F7345
:1001E000992708958AEC91E00E94E60021E0892B8E
:1001F00009F420E0822F089580E090E0892B29F017
:100200000E94F20081110C9400000895FC01A48D5D
:10021000A80FB92FB11DA35ABF4F2C91848D90E028
:1002200001968F739927848FA689B7892C93A0890B
:10023000B1898C91837080648C93938D848D981395
:1002400006C00288F389E02D80818F7D8083089528
:10025000EF92FF920F931F93CF93DF93EC0181E016
:10026000888F9B8D8C8D98131AC0E889F9898081BD
:1002700085FF15C09FB7F894EE89FF896083E889F0
:10028000F98980818370806480839FBF81E090E0E2
:10029000DF91CF911F910F91FF90EF900895F62E6F
:1002A0000B8D10E00F5F1F4F0F731127E02E8C8D09
:1002B0008E110CC00FB607FCFACFE889F98980814E
:1002C00085FFF5CFCE010E940601F1CFEB8DEC0F3B
:1002D000FD2FF11DE35AFF4FF0829FB7F8940B8F6B
:1002E000EA89FB8980818062CFCFCF93DF93EC01D5
:1002F000888D8823B9F0AA89BB89E889F9898C910E
:1003000085FD03C0808186FD0DC00FB607FCF7CFC9
:100310008C9185FFF2CF808185FFEDCFCE010E94C9
:100320000601E9CFDF91CF91089590E0FC01EE58EE
:10033000FF4F2491FC01EA57FF4F3491FC01EC552B
:10034000FF4FE491EE23C9F0222339F0233001F16D
:10035000A8F4213019F1223029F1F0E0EE0FFF1F4F
:10036000E656FF4FA591B4918FB7F894EC916111C7
:1003700026C030953E233C938FBF08952730A9F0C7
:100380002830C9F0243049F7809180008F7D03C068
:10039000809180008F7780938000DFCF84B58F7746
:1003A00084BDDBCF84B58F7DFBCF8091B0008F778C
:1003B0008093B000D2CF8091B0008F7DF9CF3E2BDB
:1003C000DACF9091000189130BC0E8EBF0E0E491E3
:1003D0009FEF90930001E13049F028F0E23061F0A6
:1003E00060E00C94950110926E00FACF90916F002E
:1003F0009D7F90936F00F4CF909170009D7F9093BC
:10040000700091E09093B0009091B100987F94605B
:100410009093B1001092B300E3CFCF93DF9390E0BD
:10042000FC01EA57FF4F24918C559F4FFC018491AA
:100430008823D1F090E0880F991FFC01E859FF4F05
:10044000A591B491FC01E656FF4FC591D49161117D
:100450000EC09FB7F8948C91E22FE0958E238C9379
:100460002881E223E8839FBFDF91CF9108958FB762
:10047000F894EC91E22BEC938FBFF6CF3FB7F89452
:100480008091AF019091B001A091B101B091B20102
:1004900026B5A89B05C02F3F19F00196A11DB11DDF
:1004A0003FBFBA2FA92F982F8827BC01CD01620F1B
:1004B000711D811D911D42E0660F771F881F991FD6
:1004C0004A95D1F708958F929F92AF92BF92CF92A3
:1004D000DF92EF92FF924B015C010E943E026B01A2
:1004E0007C010E943E026C197D098E099F09683EBD
:1004F000734081059105A8F321E0821A9108A108B3
:10050000B10888EEC80E83E0D81EE11CF11C8114EE
:100510009104A104B10429F7FF90EF90DF90CF90F0
:10052000BF90AF909F908F900895089590E080E0E5
:100530000895CF93DF93EC0160E08E810E949501D6
:1005400061E08E810E94950160E08E810E9495019C
:100550008BE891E00197F1F7DF91CF910895CF9269
:10056000DF92EF92FF920F931F93CF93DF936C0173
:100570007C0187E0E80EF11CD0E0C0E0062F10E01F
:10058000B8010C2E02C0759567950A94E2F7617068
:10059000F70181917F010E9495012196C430D10518
:1005A00079F7C601DF91CF911F910F91FF90EF90E6
:1005B000DF90CF900C949902CF92DF92EF92FF924E
:1005C0000F931F93CF93DF93EC01F62E642F8C8152
:1005D0000E9495018D818F3F19F060E00E94950186
:1005E0000F2D10E08F8584FF25C06E0187E0C80EB7
:1005F000D11CF12CE12CB8010E2C02C07595679529
:100600000A94E2F76170F60181916F010E949501F1
:10061000FFEFEF1AFF0A88E0E816F10461F7CE0158
:10062000DF91CF911F910F91FF90EF90DF90CF90CE
:100630000C949902B80184E0759567958A95E1F765
:10064000CE010E94AF026F2DCE01DF91CF911F919D
:100650000F91FF90EF90DF90CF900C94AF0240E0AD
:10066000682F87E692E00C94DC02CF93DF93823010
:1006700029F49091760298609093760280937A02A2
:1006800010927B0280E480937C0280E180937D0263
:1006900080E580937E0261E080916B020E940D02F2
:1006A00080916C028F3F19F061E00E940D0261E0C1
:1006B00080916D020E940D02C7E6D2E09E0127568E
:1006C00032408091760284FD0BC084E090E0219658
:1006D0002817390744F461E08E810E940D02EECFA5
:1006E00088E090E0F4CF8BE39DE00197F1F760E0C4
:1006F00080916B020E94950160E080916D020E94E2
:10070000950180916C028F3F19F060E00E94950185
:100710008091760284FD39C063E087E692E00E9412
:10072000AF02CBE4D6E4CE010197F1F763E087E6B0
:1007300092E00E94AF022197F1F763E087E692E032
:100740000E94AF0283E592E00197F1F762E087E64D
:1007500092E00E94AF028091760280620E942F0395
:1007600084E0809377028CE00E942F0381E00E9456
:100770002F038BE39FE10197F1F782E080937802EA
:1007800086E0DF91CF910C942F0380620E942F03AB
:100790008BE496E40197F1F78091760280620E94E3
:1007A0002F0383E592E00197F1F780917602806252
:1007B0000E942F03D0CF90917A02891710F08FEF0B
:1007C000890FE82FF0E0E959FD4F848980680C9487
:1007D0002F0341E00E94DC0281E090E00895FB01DC
:1007E00001900020E9F73197AF01461B570BDC0160
:1007F000ED91FC910280F381E02D09948F929F92FC
:10080000AF92BF920F931F93CF93DF93CDB7DEB715
:10081000A1970FB6F894DEBF0FBECDBF19A242302C
:1008200008F44AE08E010F5D1F4F842E912CB12CED
:10083000A12CA50194010E94420BE62FB901CA0127
:10084000EA3004F5E05DD801EE938D01232B242BD3
:10085000252B79F790E080E0109729F0BD0187E61D
:1008600092E00E94EF03A1960FB6F894DEBF0FBE90
:10087000CDBFDF91CF911F910F91BF90AF909F900F
:100880008F900895E95CDFCFCF93DF93BC018AECB2
:1008900091E00E94EF03EC016FE171E08AEC91E0DE
:1008A0000E94EF038C0F9D1FDF91CF9108951F923F
:1008B0000F920FB60F9211242F933F934F935F9394
:1008C0006F937F938F939F93AF93BF93EF93FF9318
:1008D0008091B8019091B901A091BA01B091BB018A
:1008E000892B8A2B8B2BD1F19091B301E091B4012C
:1008F000F091B5018081892780838091B801909122
:10090000B901A091BA01B091BB01181619061A06D7
:100910001B069CF48091B8019091B901A091BA0195
:10092000B091BB010197A109B1098093B8019093DF
:10093000B901A093BA01B093BB01FF91EF91BF91B0
:10094000AF919F918F917F916F915F914F913F9167
:100950002F910F900FBE0F901F901895809100015E
:100960000E94E101EACF1F920F920FB60F9211245D
:100970002F933F934F935F936F937F938F939F93A7
:10098000AF93BF93EF93FF938AEC91E00E9406012F
:10099000FF91EF91BF91AF919F918F917F916F9157
:1009A0005F914F913F912F910F900FBE0F901F902D
:1009B00018951F920F920FB60F9211242F938F93B9
:1009C0009F93EF93FF93E091DA01F091DB01808137
:1009D000E091E001F091E10182FD1BC090818091E6
:1009E000E3018F5F8F732091E401821741F0E09162
:1009F000E301F0E0E653FE4F958F8093E301FF9112
:100A0000EF919F918F912F910F900FBE0F901F909C
:100A100018958081F4CF1F920F920FB60F92112478
:100A20002F933F938F939F93AF93BF938091AB018D
:100A30009091AC01A091AD01B091AE013091AA01AD
:100A400023E0230F2D3758F50196A11DB11D2093EA
:100A5000AA018093AB019093AC01A093AD01B09338
:100A6000AE018091AF019091B001A091B101B09120
:100A7000B2010196A11DB11D8093AF019093B00109
:100A8000A093B101B093B201BF91AF919F918F91AB
:100A90003F912F910F900FBE0F901F90189526E851
:100AA000230F0296A11DB11DD2CFEAECF1E0138213
:100AB000128288EE93E0A0E0B0E084839583A68361
:100AC000B78385E091E09183808385EC90E0958702
:100AD000848784EC90E09787868780EC90E0918B08
:100AE000808B81EC90E0938B828B82EC90E0958BF5
:100AF000848B86EC90E0978B868B118E128E138EF2
:100B0000148EE7E6F2E01382128287E191E091838E
:100B100080838CE084838FEF85838BE0868385E000
:100B2000878384E0808783E0818782E082871386E1
:100B3000148615861686178681E00C943503789402
:100B400084B5826084BD84B5816084BD85B58260D2
:100B500085BD85B5816085BD80916E008160809383
:100B60006E001092810080918100826080938100EC
:100B700080918100816080938100809180008160FC
:100B8000809380008091B10084608093B100809157
:100B9000B00081608093B00080917A00846080937F
:100BA0007A0080917A00826080937A0080917A0046
:100BB000816080937A0080917A00806880937A00C7
:100BC0001092C10060E08FE00E940D0261E087E0BA
:100BD0000E940D0261E088E00E940D0261E089E060
:100BE0000E940D0261E08AE00E940D02E091DA01AC
:100BF000F091DB0182E08083E091D601F091D70192
:100C00001082E091D801F091D9018FEC808310928D
:100C1000E201E091DE01F091DF0186E08083E09166
:100C2000DC01F091DD01808180618083E091DC0155
:100C3000F091DD01808188608083E091DC01F0919A
:100C4000DD01808180688083E091DC01F091DD012D
:100C500080818F7D808382E00E94350364EF71E0A4
:100C600080E090E00E94630288248A94982C5401CA
:100C700011E433E9232E30E0332EC4E6D0E01093A4
:100C80007C0080917A00806480937A0080917A0061
:100C900086FDFCCF8091780060917900762F682FD7
:100CA000072E000C880B990B0E941B0A20E030E0F5
:100CB0004AEF53E40E94D00A20E030EC4FE754E4BE
:100CC0000E9478096093C6017093C7018093C801A0
:100CD0009093C90180E00E94DB0362E271E087E645
:100CE00092E00E94EF03C090C601D090C701E0904F
:100CF000C801F090C901A7019601C701B6010E9481
:100D00003D0B6CE271E081111BC026013701E894B4
:100D100077F82FEF3FEF4FE75FE7C301B2010E9483
:100D20003D0B811156C02FEF3FEF4FE75FE7C30147
:100D3000B2010E94730918160CF04BC060E371E019
:100D400087E692E00E94EF0368EE73E080E090E0B7
:100D50000E94630260E08AE00E949501C090C60193
:100D6000D090C701E090C801F090C90120E030E0C8
:100D7000A901C701B6010E94CB0A87FDA3C020E0EC
:100D800030E040E252E4C701B6010E94730987FFD8
:100D900099C081E090E09093C5018093C401809157
:100DA000C4019091C5018230910509F4DDC00CF0B9
:100DB000BDC0019709F4CAC0E0E0F0E0EF2B09F4F0
:100DC0005ECF0E94F200882309F452CF0E940000F7
:100DD0004FCF2FEF3FEF4FE75FE4C701B6010E940F
:100DE000CB0A18161CF464E371E0AACF2FEF3FEF93
:100DF0004FE75FECC701B6010E94730987FDF3CF8F
:100E000020E030E0A901C701B6010E94730987FF05
:100E10000AC041E06DE287E692E00E94DC02F7FA48
:100E2000F094F7F8F0942AE037ED43EA5BE3C7016A
:100E3000B6010E9407092B013C010E94EA096B01DF
:100E40007C010E94190A9B01AC01C301B2010E94FE
:100E500006092B013C014AE0C701B6010E94FE03CE
:100E600041E06EE287E692E00E94DC0220E030E0A2
:100E700040E251E4C301B2010E94D00A2B013C01BF
:100E80000E94EA096B01F12CE12C4AE0C701B6018E
:100E90000E94FE03C701B6010E94190A9B01AC0122
:100EA000C301B2010E94060920E030E040E251E4B3
:100EB0000E94D00A0E94EA0990E080E04AE00E9485
:100EC000FE0342CF20E030E04CE152E4C701B6011E
:100ED0000E94CB0A181664F420E030E040EA52E4A5
:100EE000C701B6010E947309E2E0F0E087FD19C076
:100EF00020E030E04EE952E4C701B6010E94CB0A7F
:100F000018166CF420E030E048EC52E4C701B6015A
:100F10000E94730918161CF083E090E03CCFE4E0D7
:100F2000F0E0F093C501E093C40139CF833091051F
:100F300029F1049709F040CF88E891E00E94440429
:100F400081E00E94DB0368E971E009C088E391E079
:100F50000E94440481E00E94DB0361E471E087E6C3
:100F600092E00E94EF0328CF84E591E00E944404C0
:100F700081E00E94DB036DE571E0F1CF8EE691E048
:100F80000E94440481E00E94DB0367E771E087E68A
:100F900092E00E94EF0361E08AE00E94950161E027
:100FA00087E00E94950160E088E00E94950161E081
:100FB00089E00E940D02EBE7F0E084918330E9F1D3
:100FC00048F48130C1F0823091F160E089E00E9404
:100FD000950116C08730D9F1883009F441C08430BA
:100FE000A1F780918000806280938000D0938B0075
:100FF000C0938A0005C084B5806884BD84E687BD3F
:10100000809100018D30A9F18F3F09F458C068EE3E
:1010100073E080E090E00E9463028DE00E94E101B5
:1010200068EE73E080E090E00E946302C5CE84B574
:10103000806284BD84E688BDE3CF809180008068B3
:1010400080938000D0938900C0938800D9CF80918D
:10105000B00080688093B00084E68093B300D0CF66
:101060008091B00080628093B00084E68093B400E9
:10107000C7CFE8EBF0E0049107FDC9CF61E08DE058
:101080000E940D02002309F489C0023009F09AC0C1
:101090008091B100887F83608093B10089EF809355
:1010A000B3008092B8019092B901A092BA01B092B7
:1010B000BB0180917000826080937000A8CF8DE0AA
:1010C00080930001E8EBF0E004910F3F09F49FCF1B
:1010D000013021F150F0023009F43EC007FD97CFF6
:1010E00061E08DE00E940D02D0CF14BC15BC84B528
:1010F000826084BD85B5816085BDE1EBF0E08491BF
:10110000E82FF0E0EE0FFF1FE656FF4F8591949118
:10111000F10184918093B70100E0B0CF109280007C
:10112000109281008091810088608093810080917D
:101130008100816080938100E1EBF0E08491E82FF1
:10114000F0E0EE0FFF1FE656FF4F85919491F101FD
:1011500084918093B60192CF1092B0001092B100AA
:101160008091B00082608093B0008091B100816076
:101170008093B100E1EBF0E08491E82FF0E0EE0F16
:10118000FF1FE656FF4F859194919093B501809390
:10119000B401F10184918093B30170CF85B5887F4C
:1011A000836085BD8CE787BD8092C0019092C101AC
:1011B000A092C201B092C30180916E0082608093C0
:1011C0006E0025CF0130D1F480918100887F81604D
:1011D000809381008FE39FE1909389008093880042
:1011E0008092BC019092BD01A092BE01B092BF015D
:1011F00080916F00826080936F0009CF023021F0F0
:10120000011105CF8FE3CFCF8FE349CF5058BB27D4
:10121000AA270E941E090C94910A0E94830A38F0A2
:101220000E948A0A20F039F49F3F19F426F40C94A6
:10123000800A0EF4E095E7FB0C947A0AE92F0E94ED
:10124000A20A58F3BA17620773078407950720F0BC
:1012500079F4A6F50C94C40A0EF4E0950B2EBA2F7F
:10126000A02D0B01B90190010C01CA01A0011124AC
:10127000FF27591B99F0593F50F4503E68F11A1658
:10128000F040A22F232F342F4427585FF3CF4695E9
:1012900037952795A795F0405395C9F77EF41F160B
:1012A000BA0B620B730B840BBAF09150A1F0FF0FD5
:1012B000BB1F661F771F881FC2F70EC0BA0F621FC1
:1012C000731F841F48F4879577956795B795F795B1
:1012D0009E3F08F0B0CF9395880F08F09927EE0F46
:1012E0009795879508950E94560A08F481E008951D
:1012F0000E948C090C94910A0E948A0A58F00E945C
:10130000830A40F029F45F3F29F00C947A0A5111C6
:101310000C94C50A0C94800A0E94A20A68F39923CF
:10132000B1F3552391F3951B550BBB27AA276217E1
:101330007307840738F09F5F5F4F220F331F441FEE
:10134000AA1FA9F335D00E2E3AF0E0E832D0915022
:101350005040E695001CCAF72BD0FE2F29D0660F0F
:10136000771F881FBB1F261737074807AB07B0E852
:1013700009F0BB0B802DBF01FF2793585F4F3AF058
:101380009E3F510578F00C947A0A0C94C50A5F3F91
:10139000E4F3983ED4F3869577956795B795F795DE
:1013A0009F5FC9F7880F911D9695879597F90895C6
:1013B000E1E0660F771F881FBB1F62177307840762
:1013C000BA0720F0621B730B840BBA0BEE1F88F771
:1013D000E09508950E94AA0A88F09F5798F0B92FC7
:1013E0009927B751B0F0E1F0660F771F881F991F5A
:1013F0001AF0BA95C9F714C0B13091F00E94C40A2E
:10140000B1E008950C94C40A672F782F8827B85F3D
:1014100039F0B93FCCF3869577956795B395D9F7B1
:101420003EF490958095709561957F4F8F4F9F4FBB
:101430000895E89409C097FB3EF4909580957095C7
:1014400061957F4F8F4F9F4F9923A9F0F92F96E910
:10145000BB279395F695879577956795B795F11185
:10146000F8CFFAF4BB0F11F460FF1BC06F5F7F4F22
:101470008F4F9F4F16C0882311F096E911C0772334
:1014800021F09EE8872F762F05C0662371F096E83D
:10149000862F70E060E02AF09A95660F771F881F0C
:1014A000DAF7880F9695879597F90895990F0008B0
:1014B000550FAA0BE0E8FEEF16161706E807F90726
:1014C000C0F012161306E407F50798F0621B730BC1
:1014D000840B950B39F40A2661F0232B242B252B42
:1014E00021F408950A2609F4A140A6958FEF811DE5
:1014F000811D089597F99F6780E870E060E0089586
:101500009FEF80EC089500240A941616170618061B
:101510000906089500240A941216130614060506F7
:101520000895092E0394000C11F4882352F0BB0F88
:1015300040F4BF2B11F460FF04C06F5F7F4F8F4FEB
:101540009F4F089557FD9058440F551F59F05F3F26
:1015500071F04795880F97FB991F61F09F3F79F0D5
:1015600087950895121613061406551FF2CF469557
:10157000F1DF08C0161617061806991FF1CF8695D9
:101580007105610508940895E894BB2766277727BD
:10159000CB0197F908950E94560A08F48FEF089539
:1015A0000E94E30A0C94910A0E94830A38F00E9478
:1015B0008A0A20F0952311F00C947A0A0C94800A80
:1015C00011240C94C50A0E94A20A70F3959FC1F3DE
:1015D000950F50E0551F629FF001729FBB27F00DE1
:1015E000B11D639FAA27F00DB11DAA1F649F662736
:1015F000B00DA11D661F829F2227B00DA11D621F85
:10160000739FB00DA11D621F839FA00D611D221F3E
:10161000749F3327A00D611D231F849F600D211D22
:10162000822F762F6A2F11249F5750409AF0F1F0A5
:1016300088234AF0EE0FFF1FBB1F661F771F881F0E
:1016400091505040A9F79E3F510580F00C947A0AC2
:101650000C94C50A5F3FE4F3983ED4F386957795E2
:101660006795B795F795E7959F5FC1F7FE2B880FB4
:10167000911D9695879597F908950E94560A880BB3
:10168000990B0895A1E21A2EAA1BBB1BFD010DC0E8
:10169000AA1FBB1FEE1FFF1FA217B307E407F50722
:1016A00020F0A21BB30BE40BF50B661F771F881FFE
:1016B000991F1A9469F760957095809590959B0194
:1016C000AC01BD01CF010895EE0FFF1F0590F4910D
:1016D000E02D0994F894FFCFFF0000000028018856
:1016E00000B5007501E600C400D80000000000E964
:1016F000038800960295020D0A0054656D70284318
:10170000293D20006E616E00696E66006F7666008E
:10171000206C6576656C2031004C4556454C203177
:10172000205341464520202020202000206C657653
:10173000656C2032004C4556454C203220484F54B1
:10174000202020202000206C6576656C2033004C22
:101750004556454C20332044414E474552202000F9
:10176000496E76616C69642052656164696E6700D8
:10177000494E56414C49442052454144494E472028
:02178000200047
:107E0000112484B714BE81FFF0D085E080938100F7
:107E100082E08093C00088E18093C10086E0809377
:107E2000C20080E18093C4008EE0C9D0259A86E02C
:107E300020E33CEF91E0309385002093840096BBD3
:107E4000B09BFECF1D9AA8958150A9F7CC24DD24C4
:107E500088248394B5E0AB2EA1E19A2EF3E0BF2EE7
:107E6000A2D0813461F49FD0082FAFD0023811F036
:107E7000013811F484E001C083E08DD089C08234E0
:107E800011F484E103C0853419F485E0A6D080C0E4
:107E9000853579F488D0E82EFF2485D0082F10E0AE
:107EA000102F00270E291F29000F111F8ED06801E7
:107EB0006FC0863521F484E090D080E0DECF843638
:107EC00009F040C070D06FD0082F6DD080E0C81688
:107ED00080E7D80618F4F601B7BEE895C0E0D1E017
:107EE00062D089930C17E1F7F0E0CF16F0E7DF06D8
:107EF00018F0F601B7BEE89568D007B600FCFDCFD4
:107F0000A601A0E0B1E02C9130E011968C91119780
:107F100090E0982F8827822B932B1296FA010C0160
:107F200087BEE89511244E5F5F4FF1E0A038BF0790
:107F300051F7F601A7BEE89507B600FCFDCF97BE46
:107F4000E89526C08437B1F42ED02DD0F82E2BD052
:107F50003CD0F601EF2C8F010F5F1F4F84911BD097
:107F6000EA94F801C1F70894C11CD11CFA94CF0C13
:107F7000D11C0EC0853739F428D08EE10CD085E9AC
:107F80000AD08FE07ACF813511F488E018D01DD067
:107F900080E101D065CF982F8091C00085FFFCCF94
:107FA0009093C60008958091C00087FFFCCF809118
:107FB000C00084FD01C0A8958091C6000895E0E648
:107FC000F0E098E1908380830895EDDF803219F02E
:107FD00088E0F5DFFFCF84E1DECF1F93182FE3DFCA
:107FE0001150E9F7F2DF1F91089580E0E8DFEE27F6
:047FF000FF270994CA
:027FFE00040479
:00000001FF
