:100000000C945D000C949E020C9477020C94850075
:100010000C9485000C9485000C9485000C9485004C
:100020000C9485000C9485000C9485000C9485003C
:100030000C9485000C9485000C9485000C9485002C
:100040000C942D020C9485000C94FB010C94D501AA
:100050000C9485000C9485000C9485000C9485000C
:100060000C9485000C9485000000000024002700FB
:100070002A0000000000250028002B0004040404CE
:100080000404040402020202020203030303030342
:10009000010204081020408001020408102001021F
:1000A00004081020000000080002010000030407FB
:1000B00000000000000000004F0411241FBECFEF1D
:1000C000D8E0DEBFCDBF11E0A0E0B1E0ECE4F9E0A4
:1000D00002C005900D92A434B107D9F721E0A4E441
:1000E000B1E001C01D92AE3EB207E1F710E0CDE5F0
:1000F000D0E004C02197FE010E949E04CC35D107B8
:10010000C9F70E94C5020C94A4040C940000AF929D
:10011000BF92CF92DF92EF92FF920F931F93CF93F4
:10012000DF936C017B018B01040F151FEB015E0156
:10013000AE18BF08C017D10759F06991D601ED91EB
:10014000FC910190F081E02DC6010995892B79F78A
:10015000C501DF91CF911F910F91FF90EF90DF903C
:10016000CF90BF90AF900895FC01538D448D252F03
:1001700030E0842F90E0821B930B541710F0CF9641
:10018000089501970895FC01918D828D981761F073
:10019000A28DAE0FBF2FB11D5D968C91928D9F5F8A
:1001A0009F73928F90E008958FEF9FEF0895FC0169
:1001B000918D828D981731F0828DE80FF11D858D1C
:1001C00090E008958FEF9FEF0895FC01918D228DAF
:1001D000892F90E0805C9F4F821B91098F73992734
:1001E000089581E591E00E94E50021E0892B09F462
:1001F00020E0822F089580E090E0892B29F00E9472
:10020000F10081110C9400000895FC01A48DA80F49
:10021000B92FB11DA35ABF4F2C91848D90E0019648
:100220008F739927848FA689B7892C93A089B18968
:100230008C91837080648C93938D848D981306C009
:100240000288F389E02D80818F7D80830895EF926D
:10025000FF920F931F93CF93DF93EC0181E0888F80
:100260009B8D8C8D98131AC0E889F989808185FF50
:1002700015C09FB7F894EE89FF896083E889F989F2
:1002800080818370806480839FBF81E090E0DF91F4
:10029000CF911F910F91FF90EF900895F62E0B8D47
:1002A00010E00F5F1F4F0F731127E02E8C8D8E1102
:1002B0000CC00FB607FCFACFE889F989808185FF69
:1002C000F5CFCE010E940501F1CFEB8DEC0FFD2F94
:1002D000F11DE35AFF4FF0829FB7F8940B8FEA8924
:1002E000FB8980818062CFCFCF93DF93EC01888D33
:1002F0008823B9F0AA89BB89E889F9898C9185FDA1
:1003000003C0808186FD0DC00FB607FCF7CF8C912E
:1003100085FFF2CF808185FFEDCFCE010E940501E0
:10032000E9CFDF91CF9108953FB7F89480914901CB
:1003300090914A01A0914B01B0914C0126B5A89B28
:1003400005C02F3F19F00196A11DB11D3FBFBA2F67
:10035000A92F982F8827BC01CD01620F711D811D27
:10036000911D42E0660F771F881F991F4A95D1F7AC
:1003700008950895FC0101900020E9F73197AF013D
:10038000481B590BBC0181E591E00C94870081E08A
:1003900090E09093500180934F0186E191E00E949C
:1003A000BA0185E391E00C94BA011F920F920FB647
:1003B0000F9211242F933F934F935F936F937F93EB
:1003C0008F939F93AF93BF93EF93FF9381E591E05A
:1003D0000E940501FF91EF91BF91AF919F918F9185
:1003E0007F916F915F914F913F912F910F900FBE31
:1003F0000F901F9018951F920F920FB60F92112415
:100400002F938F939F93EF93FF93E0916101F0916E
:1004100062018081E0916701F091680182FD1BC05B
:10042000908180916A018F5F8F7320916B01821799
:1004300041F0E0916A01F0E0EF5AFE4F958F809312
:100440006A01FF91EF919F918F912F910F900FBEB5
:100450000F901F9018958081F4CF1F920F920FB6C6
:100460000F9211242F933F938F939F93AF93BF933A
:100470008091450190914601A0914701B0914801BA
:100480003091440123E0230F2D3758F50196A11D2B
:10049000B11D209344018093450190934601A093A0
:1004A0004701B09348018091490190914A01A09180
:1004B0004B01B0914C010196A11DB11D80934901E2
:1004C00090934A01A0934B01B0934C01BF91AF911F
:1004D0009F918F913F912F910F900FBE0F901F9082
:1004E000189526E8230F0296A11DB11DD2CF1F92A9
:1004F0000F920FB60F9211242F933F934F935F9358
:100500006F937F938F939F93AF93BF93EF93FF93DB
:10051000E0910201F09103010995FF91EF91BF91E4
:10052000AF919F918F917F916F915F914F913F918B
:100530002F910F900FBE0F901F9018951F920F9242
:100540000FB60F9211242F933F934F935F936F93A6
:100550007F938F939F93AF93BF93EF93FF93E0911C
:100560000001F09101010995FF91EF91BF91AF91C9
:100570009F918F917F916F915F914F913F912F91BB
:100580000F900FBE0F901F901895CF93DF93CDB7AC
:10059000DEB7A1970FB6F894DEBF0FBECDBF78943B
:1005A00084B5826084BD84B5816084BD85B5826078
:1005B00085BD85B5816085BD80916E008160809329
:1005C0006E00109281008091810082608093810092
:1005D00080918100816080938100809180008160A2
:1005E000809380008091B10084608093B1008091FD
:1005F000B00081608093B00080917A008460809325
:100600007A0080917A00826080937A0080917A00EB
:10061000816080937A0080917A00806880937A006C
:100620001092C100E0916101F091620182E080834B
:10063000E0915D01F0915E011082E0915F01F09127
:1006400060018FEC808310926901E0916501F09167
:10065000660186E08083E0916301F091640180810E
:1006600080618083E0916301F09164018081886002
:100670008083E0916301F0916401808180688083D0
:10068000E0916301F091640180818F7D8083EDE9C9
:10069000F0E0249159E8252E50E0352EF1018491A7
:1006A000882399F090E0880F991FFC01E859FF4FCB
:1006B000A591B491FC01EE58FF4F859194918FB7AD
:1006C000F8949C91292B2C938FBF87EC91E0909309
:1006D000030180930201809169008C60809369001E
:1006E000E99A3AE0432E512C612C712C00E010E085
:1006F0001092500110924F0188E391E00E94BA01DC
:10070000C0904D01D0904E010D2C000CEE08FF085A
:10071000F7FE8BC06DE281E591E00E942701222760
:100720003327A9012C193D094E095F0919A2CE01F1
:1007300081967C01CA01B901A30192010E947C0447
:10074000605DF70162937F01211531054105510577
:1007500089F7E114F10419F0C7010E94BA018091F0
:100760004D0190914E01019690934E0180934D0161
:100770000E9494014B015C0124EFC22EDD24D3942E
:10078000E12CF12C0E949401681979098A099B09CE
:10079000683E734081059105A8F3F1E0CF1AD108B6
:1007A000E108F10828EE820E23E0921EA11CB11C84
:1007B000C114D104E104F10429F780914F01909113
:1007C0005001E1EBF0E03491EDE9F0E02491F1012A
:1007D00044914423F1F0332359F0333009F445C0F8
:1007E00008F039C0313009F446C0323009F447C04E
:1007F000E42FF0E0EE0FFF1FEE58FF4FA591B491EC
:100800009FB7F894811148C08C91209528232C9390
:100810009FBF0115110509F46BCF0E94F1008823D9
:1008200009F466CF0E94000063CFA701960119A2C8
:10083000CE0181967C01CA01B901A30192010E94F7
:100840007C04605DF70162937F012115310541054C
:10085000510589F77ECF3730A9F03830C9F03430F0
:1008600039F6309180003F7D03C0309180003F77A2
:1008700030938000BDCF34B53F7734BDB9CF34B5A8
:100880003F7DFBCF3091B0003F773093B000B0CFC9
:100890003091B0003F7DF9CF8C91282BB8CFE1E5A6
:1008A000F1E01382128288EE93E0A0E0B0E084834E
:1008B0009583A683B78388E091E09183808385EC5C
:1008C00090E09587848784EC90E09787868780EC1A
:1008D00090E0918B808B81EC90E0938B828B82EC0B
:1008E00090E0958B848B86EC90E0978B868B118EB5
:1008F000128E138E148E0895A1E21A2EAA1BBB1B12
:10090000FD010DC0AA1FBB1FEE1FFF1FA217B307DB
:10091000E407F50720F0A21BB30BE40BF50B661FF1
:10092000771F881F991F1A9469F7609570958095B5
:1009300090959B01AC01BD01CF010895EE0FFF1F03
:0C0940000590F491E02D0994F894FFCF8D
:10094C00B901B9010000000027018700B40074014F
:10095C00E500C300D700496E74657272757074201F
:10096C00617420627574746F6E20312065786563D4
:10097C0075746564000D0A0020434F554E54455262
:04098C003A2000000D
:00000001FF
